{
  "_format": "hh-sol-artifact-1",
  "contractName": "Feedback",
  "sourceName": "contracts/Feedback.sol",
  "abi": [
    {
      "inputs": [
        {
          "internalType": "address",
          "name": "semaphoreAddress",
          "type": "address"
        },
        {
          "internalType": "uint256",
          "name": "_groupId",
          "type": "uint256"
        }
      ],
      "stateMutability": "nonpayable",
      "type": "constructor"
    },
    {
      "inputs": [],
      "name": "groupId",
      "outputs": [
        {
          "internalType": "uint256",
          "name": "",
          "type": "uint256"
        }
      ],
      "stateMutability": "view",
      "type": "function"
    },
    {
      "inputs": [
        {
          "internalType": "uint256",
          "name": "identityCommitment",
          "type": "uint256"
        }
      ],
      "name": "joinGroup",
      "outputs": [],
      "stateMutability": "nonpayable",
      "type": "function"
    },
    {
      "inputs": [],
      "name": "semaphore",
      "outputs": [
        {
          "internalType": "contract ISemaphore",
          "name": "",
          "type": "address"
        }
      ],
      "stateMutability": "view",
      "type": "function"
    },
    {
      "inputs": [
        {
          "internalType": "uint256",
          "name": "feedback",
          "type": "uint256"
        },
        {
          "internalType": "uint256",
          "name": "merkleTreeRoot",
          "type": "uint256"
        },
        {
          "internalType": "uint256",
          "name": "nullifierHash",
          "type": "uint256"
        },
        {
          "internalType": "uint256[8]",
          "name": "proof",
          "type": "uint256[8]"
        }
      ],
      "name": "sendFeedback",
      "outputs": [],
      "stateMutability": "nonpayable",
      "type": "function"
    }
  ],
  "bytecode": "0x608060405234801561001057600080fd5b5060405161036f38038061036f83398101604081905261002f916100b5565b600080546001600160a01b0319166001600160a01b0384169081179091556001829055604051639c11214160e01b81526004810183905260146024820152306044820152639c11214190606401600060405180830381600087803b15801561009657600080fd5b505af11580156100aa573d6000803e3d6000fd5b5050505050506100ed565b600080604083850312156100c7578182fd5b82516001600160a01b03811681146100dd578283fd5b6020939093015192949293505050565b610273806100fc6000396000f3fe608060405234801561001057600080fd5b506004361061004c5760003560e01c80637b5d253414610051578063a0f44c9214610081578063d18ed1e914610098578063eed02e4b146100ad575b600080fd5b600054610064906001600160a01b031681565b6040516001600160a01b0390911681526020015b60405180910390f35b61008a60015481565b604051908152602001610078565b6100ab6100a63660046101bc565b6100c0565b005b6100ab6100bb3660046101a4565b610133565b600054600154604051633bc778e360e01b81526001600160a01b0390921691633bc778e3916100fb9187908990889042908990600401610201565b600060405180830381600087803b15801561011557600080fd5b505af1158015610129573d6000803e3d6000fd5b5050505050505050565b600054600154604051631783efc360e01b81526001600160a01b0390921691631783efc39161016f918590600401918252602082015260400190565b600060405180830381600087803b15801561018957600080fd5b505af115801561019d573d6000803e3d6000fd5b5050505050565b6000602082840312156101b5578081fd5b5035919050565b6000806000806101608086880312156101d3578384fd5b8535945060208601359350604086013592508681870111156101f3578182fd5b509295919450926060019150565b60006101a0820190508782528660208301528560408301528460608301528360808301526101008360a08401376000815297965050505050505056fea26469706673582212203344387e9eaa615c807db5d3394703afc1815b868c5535db8a413e5d54a79e1164736f6c63430008040033",
  "linkReferences": {},
  "deployedLinkReferences": {}
}