{
  "_format": "hh-sol-artifact-1",
  "contractName": "GameFactory",
  "sourceName": "contracts/GameFactory.sol",
  "abi": [
    {
      "inputs": [
        {
          "internalType": "address",
          "name": "semaphoreAddress",
          "type": "address"
        },
        {
          "internalType": "address",
          "name": "_amongUsToken",
          "type": "address"
        },
        {
          "internalType": "contract KillerVerifier",
          "name": "_killerVerifier",
          "type": "address"
        },
        {
          "internalType": "contract CrewVerifier",
          "name": "_crewVerifier",
          "type": "address"
        }
      ],
      "stateMutability": "nonpayable",
      "type": "constructor"
    },
    {
      "inputs": [],
      "name": "createNewGame",
      "outputs": [],
      "stateMutability": "nonpayable",
      "type": "function"
    },
    {
      "inputs": [
        {
          "internalType": "uint256",
          "name": "",
          "type": "uint256"
        }
      ],
      "name": "gamesArray",
      "outputs": [
        {
          "internalType": "contract Game",
          "name": "",
          "type": "address"
        }
      ],
      "stateMutability": "view",
      "type": "function"
    }
  ],
  "bytecode": "0x608060405234801561001057600080fd5b506040516118d23803806118d283398101604081905261002f91610082565b600180546001600160a01b039586166001600160a01b03199182161790915560008054948616948216949094179093556003805492851692841692909217909155600280549190931691161790556100f8565b60008060008060808587031215610097578384fd5b84516100a2816100e0565b60208601519094506100b3816100e0565b60408601519093506100c4816100e0565b60608601519092506100d5816100e0565b939692955090935050565b6001600160a01b03811681146100f557600080fd5b50565b6117cb806101076000396000f3fe608060405234801561001057600080fd5b50600436106100365760003560e01c80630bb531571461003b578063eb87eb5e1461006a575b600080fd5b61004e610049366004610192565b610074565b6040516001600160a01b03909116815260200160405180910390f35b61007261009e565b005b6005818154811061008457600080fd5b6000918252602090912001546001600160a01b0316905081565b600060045460016100af91906101aa565b6001546000805460035460025460405195965092946001600160a01b03948516948794938116939281169216906100e590610185565b6001600160a01b0395861681526020810194909452918416604084015283166060830152909116608082015260a001604051809103906000f080158015610130573d6000803e3d6000fd5b50600580546001810182556000919091527f036b6384b5eca791c62761152d0c79bb0604c104a5fb6f4eb0703f3154bb3db00180546001600160a01b0319166001600160a01b03929092169190911790555050565b6115c7806101cf83390190565b6000602082840312156101a3578081fd5b5035919050565b600082198211156101c957634e487b7160e01b81526011600452602481fd5b50019056fe60806040523480156200001157600080fd5b50604051620015c7380380620015c78339810160408190526200003491620000f7565b600180546001600160a01b038781166001600160a01b03199283168117909355600087905560028054878316908416179055600380548683169084161790556004805491851691909216178155604051639c11214160e01b8152908101869052600a6024820152306044820152639c11214190606401600060405180830381600087803b158015620000c557600080fd5b505af1158015620000da573d6000803e3d6000fd5b5050600c805460ff19166001179055506200018395505050505050565b600080600080600060a086880312156200010f578081fd5b85516200011c816200016a565b60208701516040880151919650945062000136816200016a565b606087015190935062000149816200016a565b60808701519092506200015c816200016a565b809150509295509295909350565b6001600160a01b03811681146200018057600080fd5b50565b61143480620001936000396000f3fe608060405234801561001057600080fd5b50600436106100b45760003560e01c80637b5d2534116100715780637b5d25341461016a5780639930c4c61461017d578063ca5ed9fe14610194578063d23254b41461019d578063d7c81b55146101e3578063ec4a8b17146101ec57600080fd5b80633aff7a22146100b95780633d817811146100f15780635197be2c1461010657806363f74c5f1461013157806367843a5b146101445780637319b43e14610157575b600080fd5b6100dc6100c7366004611045565b60076020526000908152604090205460ff1681565b60405190151581526020015b60405180910390f35b6101046100ff3660046111c1565b6101ff565b005b600254610119906001600160a01b031681565b6040516001600160a01b0390911681526020016100e8565b61010461013f36600461105f565b6105d1565b6101046101523660046110fd565b610863565b610119610165366004611166565b6109d8565b600154610119906001600160a01b031681565b61018660095481565b6040519081526020016100e8565b610186600a5481565b6101ce6101ab366004611196565b600560209081526000928352604080842090915290825290205463ffffffff1681565b60405163ffffffff90911681526020016100e8565b61018660005481565b6101046101fa366004611166565b610a02565b60048054604051633a94343960e21b815286928692869286926001600160a01b039092169163ea50d0e49161023c91889188918891889101611264565b60206040518083038186803b15801561025457600080fd5b505afa158015610268573d6000803e3d6000fd5b505050506040513d601f19601f8201168201806040525081019061028c91906110dd565b61029557600080fd5b60008a815260066020908152604080832033845290915290205460ff16156102ec5760405162461bcd60e51b81526020600482015260056024820152641593d5115160da1b60448201526064015b60405180910390fd5b3360009081526007602052604090205460ff16156103355760405162461bcd60e51b815260206004820152600660248201526512d25313115160d21b60448201526064016102e3565b600c5460ff16151560011461037c5760405162461bcd60e51b815260206004820152600d60248201526c25a4a62622a913b9902a2aa92760991b60448201526064016102e3565b60008a81526005602090815260408083206001600160a01b038d16845290915281208054600192906103b590849063ffffffff16611314565b82546101009290920a63ffffffff81810219909316918316021790915560008c8152600d6020526040812080546001945090926103f491859116611314565b82546101009290920a63ffffffff81810219909316918316021790915560008c81526006602090815260408083203384528252808320805460ff19166001179055600e548f8452600d909252909120549082169116141590506105c55760008060005b60085463ffffffff821610156105ae578163ffffffff16600560008f8152602001908152602001600020600060088463ffffffff16815481106104aa57634e487b7160e01b600052603260045260246000fd5b60009182526020808320909101546001600160a01b0316835282019290925260400190205463ffffffff161180156104f257503360009081526007602052604090205460ff16155b1561059c5760008d81526005602052604081206008805491929163ffffffff851690811061053057634e487b7160e01b600052603260045260246000fd5b60009182526020808320909101546001600160a01b031683528201929092526040019020546008805463ffffffff92831694509091831690811061058457634e487b7160e01b600052603260045260246000fd5b6000918252602090912001546001600160a01b031692505b806105a6816113c4565b915050610457565b506105b882610b41565b5050600c805460ff191690555b50505050505050505050565b600354604051633a94343960e21b815285918591859185916001600160a01b039091169063ea50d0e49061060f908790879087908790600401611264565b60206040518083038186803b15801561062757600080fd5b505afa15801561063b573d6000803e3d6000fd5b505050506040513d601f19601f8201168201806040525081019061065f91906110dd565b61066857600080fd5b3360009081526007602052604090205460ff16156106b15760405162461bcd60e51b815260206004820152600660248201526512d25313115160d21b60448201526064016102e3565b600c5460ff16156106f25760405162461bcd60e51b815260206004820152600b60248201526a21a922ab93b9903a3ab93760a91b60448201526064016102e3565b3360009081526007602052604090205460ff1615156001141561075657600e8054640100000000640100000000600160c81b031990911633600160281b0217179055600954600254610751916001600160a01b03909116903090610b80565b61084b565b600e5463ffffffff16600214156107b557600e8054600160281b3302640100000000600160c81b031990911617640100000000179055600a546009546107519130916107a291906112fc565b6002546001600160a01b03169190610b80565b633b9aca00600a60008282546107cb919061135c565b92505081905550633b9aca00600960008282546107e891906112fc565b90915550506001600160a01b0389166000908152600760205260408120805460ff19166001908117909155600e80549192909161082c90849063ffffffff16611373565b92506101000a81548163ffffffff021916908363ffffffff1602179055505b5050600c805460ff1916600117905550505050505050565b60048054604051633a94343960e21b815286928692869286926001600160a01b039092169163ea50d0e4916108a091889188918891889101611264565b60206040518083038186803b1580156108b857600080fd5b505afa1580156108cc573d6000803e3d6000fd5b505050506040513d601f19601f820116820180604052508101906108f091906110dd565b6108f957600080fd5b600e54640100000000900460ff16151560011461091557600080fd5b336000908152600b602052604090205460ff161561093257600080fd5b600e54600263ffffffff9091161161094957600080fd5b600e54600160281b90046001600160a01b03161580159061097c5750600e54600160281b90046001600160a01b03163314155b61098557600080fd5b336000908152600b60205260409020805460ff19166001908117909155600e546109ce9130916109bb919063ffffffff16611373565b63ffffffff16600a546107a2919061133c565b5050505050505050565b600881815481106109e857600080fd5b6000918252602090912001546001600160a01b0316905081565b600254610a1d906001600160a01b031630633b9aca00610be8565b600254610a39906001600160a01b03163330633b9aca00610d0c565b600154600054604051631783efc360e01b81526001600160a01b0390921691631783efc391610a75918590600401918252602082015260400190565b600060405180830381600087803b158015610a8f57600080fd5b505af1158015610aa3573d6000803e3d6000fd5b50506008805460018101825560009182527ff3f7a9fe364faab93b216da50a3214154f22a0a2b415b23a84c8169e8b636ee30180546001600160a01b03191633179055600a8054633b9aca009450909250610aff9084906112fc565b9091555050600e805460019190600090610b2090849063ffffffff16611314565b92506101000a81548163ffffffff021916908363ffffffff16021790555050565b6001600160a01b0381166000908152600760205260408120805460ff19166001908117909155600e805491929091610b2090849063ffffffff16611373565b6040516001600160a01b038316602482015260448101829052610be390849063a9059cbb60e01b906064015b60408051601f198184030181529190526020810180516001600160e01b03166001600160e01b031990931692909217909152610d4a565b505050565b801580610c715750604051636eb1769f60e11b81523060048201526001600160a01b03838116602483015284169063dd62ed3e9060440160206040518083038186803b158015610c3757600080fd5b505afa158015610c4b573d6000803e3d6000fd5b505050506040513d601f19601f82011682018060405250810190610c6f919061117e565b155b610cdc5760405162461bcd60e51b815260206004820152603660248201527f5361666545524332303a20617070726f76652066726f6d206e6f6e2d7a65726f60448201527520746f206e6f6e2d7a65726f20616c6c6f77616e636560501b60648201526084016102e3565b6040516001600160a01b038316602482015260448101829052610be390849063095ea7b360e01b90606401610bac565b6040516001600160a01b0380851660248301528316604482015260648101829052610d449085906323b872dd60e01b90608401610bac565b50505050565b6000610d9f826040518060400160405280602081526020017f5361666545524332303a206c6f772d6c6576656c2063616c6c206661696c6564815250856001600160a01b0316610e1c9092919063ffffffff16565b805190915015610be35780806020019051810190610dbd91906110dd565b610be35760405162461bcd60e51b815260206004820152602a60248201527f5361666545524332303a204552433230206f7065726174696f6e20646964206e6044820152691bdd081cdd58d8d9595960b21b60648201526084016102e3565b6060610e2b8484600085610e35565b90505b9392505050565b606082471015610e965760405162461bcd60e51b815260206004820152602660248201527f416464726573733a20696e73756666696369656e742062616c616e636520666f6044820152651c8818d85b1b60d21b60648201526084016102e3565b6001600160a01b0385163b610eed5760405162461bcd60e51b815260206004820152601d60248201527f416464726573733a2063616c6c20746f206e6f6e2d636f6e747261637400000060448201526064016102e3565b600080866001600160a01b03168587604051610f099190611248565b60006040518083038185875af1925050503d8060008114610f46576040519150601f19603f3d011682016040523d82523d6000602084013e610f4b565b606091505b5091509150610f5b828286610f66565b979650505050505050565b60608315610f75575081610e2e565b825115610f855782518084602001fd5b8160405162461bcd60e51b81526004016102e391906112c9565b80356001600160a01b0381168114610fb657600080fd5b919050565b60008083601f840112610fcc578182fd5b50813567ffffffffffffffff811115610fe3578182fd5b6020830191508360208260051b8501011115610ffe57600080fd5b9250929050565b60008083601f840112611016578182fd5b50813567ffffffffffffffff81111561102d578182fd5b602083019150836020828501011115610ffe57600080fd5b600060208284031215611056578081fd5b610e2e82610f9f565b600080600080600060608688031215611076578081fd5b61107f86610f9f565b9450602086013567ffffffffffffffff8082111561109b578283fd5b6110a789838a01611005565b909650945060408801359150808211156110bf578283fd5b506110cc88828901610fbb565b969995985093965092949392505050565b6000602082840312156110ee578081fd5b81518015158114610e2e578182fd5b60008060008060408587031215611112578384fd5b843567ffffffffffffffff80821115611129578586fd5b61113588838901611005565b9096509450602087013591508082111561114d578384fd5b5061115a87828801610fbb565b95989497509550505050565b600060208284031215611177578081fd5b5035919050565b60006020828403121561118f578081fd5b5051919050565b600080604083850312156111a8578182fd5b823591506111b860208401610f9f565b90509250929050565b600080600080600080608087890312156111d9578081fd5b863595506111e960208801610f9f565b9450604087013567ffffffffffffffff80821115611205578283fd5b6112118a838b01611005565b90965094506060890135915080821115611229578283fd5b5061123689828a01610fbb565b979a9699509497509295939492505050565b6000825161125a818460208701611398565b9190910192915050565b6040815283604082015283856060830137600060608583018101829052601f19601f8701168301838103820160208501529081018490526001600160fb1b038411156112ae578182fd5b8360051b808660808401370160800190815295945050505050565b60208152600082518060208401526112e8816040850160208701611398565b601f01601f19169190910160400192915050565b6000821982111561130f5761130f6113e8565b500190565b600063ffffffff808316818516808303821115611333576113336113e8565b01949350505050565b60008261135757634e487b7160e01b81526012600452602481fd5b500490565b60008282101561136e5761136e6113e8565b500390565b600063ffffffff83811690831681811015611390576113906113e8565b039392505050565b60005b838110156113b357818101518382015260200161139b565b83811115610d445750506000910152565b600063ffffffff808316818114156113de576113de6113e8565b6001019392505050565b634e487b7160e01b600052601160045260246000fdfea2646970667358221220409ee5a340eec16a0e106c409c9b21917077f2aff705dc2272f51b6fe8bb417264736f6c63430008040033a2646970667358221220195df50b77a5b1368eb84d9c99dd9e8c65695bdae5e874f7304d296b3776e22c64736f6c63430008040033",
  "linkReferences": {},
  "deployedLinkReferences": {}
}